{
  "_format": "hh-sol-artifact-1",
  "contractName": "MyEpicNFT",
  "sourceName": "contracts/MyEpicNFT.sol",
  "abi": [
    {
      "inputs": [],
      "stateMutability": "nonpayable",
      "type": "constructor"
    },
    {
      "anonymous": false,
      "inputs": [
        {
          "indexed": true,
          "internalType": "address",
          "name": "owner",
          "type": "address"
        },
        {
          "indexed": true,
          "internalType": "address",
          "name": "approved",
          "type": "address"
        },
        {
          "indexed": true,
          "internalType": "uint256",
          "name": "tokenId",
          "type": "uint256"
        }
      ],
      "name": "Approval",
      "type": "event"
    },
    {
      "anonymous": false,
      "inputs": [
        {
          "indexed": true,
          "internalType": "address",
          "name": "owner",
          "type": "address"
        },
        {
          "indexed": true,
          "internalType": "address",
          "name": "operator",
          "type": "address"
        },
        {
          "indexed": false,
          "internalType": "bool",
          "name": "approved",
          "type": "bool"
        }
      ],
      "name": "ApprovalForAll",
      "type": "event"
    },
    {
      "anonymous": false,
      "inputs": [
        {
          "indexed": false,
          "internalType": "address",
          "name": "sender",
          "type": "address"
        },
        {
          "indexed": false,
          "internalType": "uint256",
          "name": "tokenId",
          "type": "uint256"
        }
      ],
      "name": "NewEpicNFTMinted",
      "type": "event"
    },
    {
      "anonymous": false,
      "inputs": [
        {
          "indexed": true,
          "internalType": "address",
          "name": "from",
          "type": "address"
        },
        {
          "indexed": true,
          "internalType": "address",
          "name": "to",
          "type": "address"
        },
        {
          "indexed": true,
          "internalType": "uint256",
          "name": "tokenId",
          "type": "uint256"
        }
      ],
      "name": "Transfer",
      "type": "event"
    },
    {
      "inputs": [
        {
          "internalType": "address",
          "name": "to",
          "type": "address"
        },
        {
          "internalType": "uint256",
          "name": "tokenId",
          "type": "uint256"
        }
      ],
      "name": "approve",
      "outputs": [],
      "stateMutability": "nonpayable",
      "type": "function"
    },
    {
      "inputs": [
        {
          "internalType": "address",
          "name": "owner",
          "type": "address"
        }
      ],
      "name": "balanceOf",
      "outputs": [
        {
          "internalType": "uint256",
          "name": "",
          "type": "uint256"
        }
      ],
      "stateMutability": "view",
      "type": "function"
    },
    {
      "inputs": [
        {
          "internalType": "uint256",
          "name": "tokenId",
          "type": "uint256"
        }
      ],
      "name": "getApproved",
      "outputs": [
        {
          "internalType": "address",
          "name": "",
          "type": "address"
        }
      ],
      "stateMutability": "view",
      "type": "function"
    },
    {
      "inputs": [],
      "name": "getTotalNFTsMintedSoFar",
      "outputs": [
        {
          "internalType": "uint256",
          "name": "",
          "type": "uint256"
        }
      ],
      "stateMutability": "view",
      "type": "function"
    },
    {
      "inputs": [
        {
          "internalType": "address",
          "name": "owner",
          "type": "address"
        },
        {
          "internalType": "address",
          "name": "operator",
          "type": "address"
        }
      ],
      "name": "isApprovedForAll",
      "outputs": [
        {
          "internalType": "bool",
          "name": "",
          "type": "bool"
        }
      ],
      "stateMutability": "view",
      "type": "function"
    },
    {
      "inputs": [],
      "name": "makeAnEpicNFT",
      "outputs": [],
      "stateMutability": "nonpayable",
      "type": "function"
    },
    {
      "inputs": [],
      "name": "name",
      "outputs": [
        {
          "internalType": "string",
          "name": "",
          "type": "string"
        }
      ],
      "stateMutability": "view",
      "type": "function"
    },
    {
      "inputs": [
        {
          "internalType": "uint256",
          "name": "tokenId",
          "type": "uint256"
        }
      ],
      "name": "ownerOf",
      "outputs": [
        {
          "internalType": "address",
          "name": "",
          "type": "address"
        }
      ],
      "stateMutability": "view",
      "type": "function"
    },
    {
      "inputs": [
        {
          "internalType": "uint256",
          "name": "tokenId",
          "type": "uint256"
        }
      ],
      "name": "pickRandomColor",
      "outputs": [
        {
          "internalType": "string",
          "name": "",
          "type": "string"
        }
      ],
      "stateMutability": "view",
      "type": "function"
    },
    {
      "inputs": [
        {
          "internalType": "uint256",
          "name": "tokenId",
          "type": "uint256"
        }
      ],
      "name": "pickRandomFirstWord",
      "outputs": [
        {
          "internalType": "string",
          "name": "",
          "type": "string"
        }
      ],
      "stateMutability": "view",
      "type": "function"
    },
    {
      "inputs": [
        {
          "internalType": "uint256",
          "name": "tokenId",
          "type": "uint256"
        }
      ],
      "name": "pickRandomSecondWord",
      "outputs": [
        {
          "internalType": "string",
          "name": "",
          "type": "string"
        }
      ],
      "stateMutability": "view",
      "type": "function"
    },
    {
      "inputs": [
        {
          "internalType": "uint256",
          "name": "tokenId",
          "type": "uint256"
        }
      ],
      "name": "pickRandomThirdWord",
      "outputs": [
        {
          "internalType": "string",
          "name": "",
          "type": "string"
        }
      ],
      "stateMutability": "view",
      "type": "function"
    },
    {
      "inputs": [
        {
          "internalType": "address",
          "name": "from",
          "type": "address"
        },
        {
          "internalType": "address",
          "name": "to",
          "type": "address"
        },
        {
          "internalType": "uint256",
          "name": "tokenId",
          "type": "uint256"
        }
      ],
      "name": "safeTransferFrom",
      "outputs": [],
      "stateMutability": "nonpayable",
      "type": "function"
    },
    {
      "inputs": [
        {
          "internalType": "address",
          "name": "from",
          "type": "address"
        },
        {
          "internalType": "address",
          "name": "to",
          "type": "address"
        },
        {
          "internalType": "uint256",
          "name": "tokenId",
          "type": "uint256"
        },
        {
          "internalType": "bytes",
          "name": "_data",
          "type": "bytes"
        }
      ],
      "name": "safeTransferFrom",
      "outputs": [],
      "stateMutability": "nonpayable",
      "type": "function"
    },
    {
      "inputs": [
        {
          "internalType": "address",
          "name": "operator",
          "type": "address"
        },
        {
          "internalType": "bool",
          "name": "approved",
          "type": "bool"
        }
      ],
      "name": "setApprovalForAll",
      "outputs": [],
      "stateMutability": "nonpayable",
      "type": "function"
    },
    {
      "inputs": [
        {
          "internalType": "bytes4",
          "name": "interfaceId",
          "type": "bytes4"
        }
      ],
      "name": "supportsInterface",
      "outputs": [
        {
          "internalType": "bool",
          "name": "",
          "type": "bool"
        }
      ],
      "stateMutability": "view",
      "type": "function"
    },
    {
      "inputs": [],
      "name": "symbol",
      "outputs": [
        {
          "internalType": "string",
          "name": "",
          "type": "string"
        }
      ],
      "stateMutability": "view",
      "type": "function"
    },
    {
      "inputs": [
        {
          "internalType": "uint256",
          "name": "tokenId",
          "type": "uint256"
        }
      ],
      "name": "tokenURI",
      "outputs": [
        {
          "internalType": "string",
          "name": "",
          "type": "string"
        }
      ],
      "stateMutability": "view",
      "type": "function"
    },
    {
      "inputs": [
        {
          "internalType": "address",
          "name": "from",
          "type": "address"
        },
        {
          "internalType": "address",
          "name": "to",
          "type": "address"
        },
        {
          "internalType": "uint256",
          "name": "tokenId",
          "type": "uint256"
        }
      ],
      "name": "transferFrom",
      "outputs": [],
      "stateMutability": "nonpayable",
      "type": "function"
    }
  ],
  "bytecode": "0x6080604052603260085560405180610100016040528060d38152602001620047be60d39139600990805190602001906200003b92919062000831565b506040518060800160405280605681526020016200489160569139600a90805190602001906200006d92919062000831565b506040518060c001604052806040518060400160405280600981526020017f457863656c6c656e74000000000000000000000000000000000000000000000081525081526020016040518060400160405280600481526020017f476f6f640000000000000000000000000000000000000000000000000000000081525081526020016040518060400160405280600781526020017f417765736f6d650000000000000000000000000000000000000000000000000081525081526020016040518060400160405280600381526020017f426164000000000000000000000000000000000000000000000000000000000081525081526020016040518060400160405280600481526020017f4e6963650000000000000000000000000000000000000000000000000000000081525081526020016040518060400160405280600881526020017f5465727269626c65000000000000000000000000000000000000000000000000815250815250600b906006620001eb929190620008c2565b506040518060c001604052806040518060400160405280600581526020017f537573686900000000000000000000000000000000000000000000000000000081525081526020016040518060400160405280600581526020017f52616d656e00000000000000000000000000000000000000000000000000000081525081526020016040518060400160405280600881526020017f4d65657462616c6c00000000000000000000000000000000000000000000000081525081526020016040518060400160405280600481526020017f43616b650000000000000000000000000000000000000000000000000000000081525081526020016040518060400160405280600981526020017f48616d627572676572000000000000000000000000000000000000000000000081525081526020016040518060400160405280600681526020017f506f7461746f0000000000000000000000000000000000000000000000000000815250815250600c90600662000369929190620008c2565b506040518060c001604052806040518060400160405280600481526020017f4865726f0000000000000000000000000000000000000000000000000000000081525081526020016040518060400160405280600681526020017f56696c61696e000000000000000000000000000000000000000000000000000081525081526020016040518060400160405280600481526020017f41726d790000000000000000000000000000000000000000000000000000000081525081526020016040518060400160405280600581526020017f526f626f7400000000000000000000000000000000000000000000000000000081525081526020016040518060400160405280600981526020017f536369656e74697374000000000000000000000000000000000000000000000081525081526020016040518060400160405280600581526020017f456e67656c000000000000000000000000000000000000000000000000000000815250815250600d906006620004e7929190620008c2565b506040518060c001604052806040518060400160405280600381526020017f726564000000000000000000000000000000000000000000000000000000000081525081526020016040518060400160405280600781526020017f233038433241380000000000000000000000000000000000000000000000000081525081526020016040518060400160405280600581526020017f626c61636b00000000000000000000000000000000000000000000000000000081525081526020016040518060400160405280600681526020017f79656c6c6f77000000000000000000000000000000000000000000000000000081525081526020016040518060400160405280600481526020017f626c75650000000000000000000000000000000000000000000000000000000081525081526020016040518060400160405280600581526020017f677265656e000000000000000000000000000000000000000000000000000000815250815250600e90600662000665929190620008c2565b503480156200067357600080fd5b506040518060400160405280600981526020017f5371756172654e465400000000000000000000000000000000000000000000008152506040518060400160405280600681526020017f53515541524500000000000000000000000000000000000000000000000000008152508160009080519060200190620006f892919062000831565b5080600190805190602001906200071192919062000831565b5050506200075f6040518060400160405280601e81526020017f54686973206973206d79204e465420636f6e74726163742e20576f61682100008152506200076560201b620012911760201c565b62000ae3565b62000805816040516024016200077c9190620009f7565b6040516020818303038152906040527f41304fac000000000000000000000000000000000000000000000000000000007bffffffffffffffffffffffffffffffffffffffffffffffffffffffff19166020820180517bffffffffffffffffffffffffffffffffffffffffffffffffffffffff83818316178352505050506200080860201b60201c565b50565b60008151905060006a636f6e736f6c652e6c6f679050602083016000808483855afa5050505050565b8280546200083f9062000a6d565b90600052602060002090601f016020900481019282620008635760008555620008af565b82601f106200087e57805160ff1916838001178555620008af565b82800160010185558215620008af579182015b82811115620008ae57825182559160200191906001019062000891565b5b509050620008be919062000929565b5090565b82805482825590600052602060002090810192821562000916579160200282015b82811115620009155782518290805190602001906200090492919062000831565b5091602001919060010190620008e3565b5b50905062000925919062000948565b5090565b5b80821115620009445760008160009055506001016200092a565b5090565b5b808211156200096c576000818162000962919062000970565b5060010162000949565b5090565b5080546200097e9062000a6d565b6000825580601f10620009925750620009b3565b601f016020900490600052602060002090810190620009b2919062000929565b5b50565b6000620009c38262000a1b565b620009cf818562000a26565b9350620009e181856020860162000a37565b620009ec8162000ad2565b840191505092915050565b6000602082019050818103600083015262000a138184620009b6565b905092915050565b600081519050919050565b600082825260208201905092915050565b60005b8381101562000a5757808201518184015260208101905062000a3a565b8381111562000a67576000848401525b50505050565b6000600282049050600182168062000a8657607f821691505b6020821081141562000a9d5762000a9c62000aa3565b5b50919050565b7f4e487b7100000000000000000000000000000000000000000000000000000000600052602260045260246000fd5b6000601f19601f8301169050919050565b613ccb8062000af36000396000f3fe608060405234801561001057600080fd5b50600436106101215760003560e01c80636352211e116100ad578063b88d4fde11610071578063b88d4fde14610340578063c575757a1461035c578063c87b56dd1461038c578063de9d132f146103bc578063e985e9c5146103c657610121565b80636352211e1461027657806370a08231146102a657806395d89b41146102d6578063a22cb465146102f4578063b187301f1461031057610121565b8063095ea7b3116100f4578063095ea7b3146101c257806323b872dd146101de5780632de38d68146101fa57806342842e0e1461022a578063514dc8c61461024657610121565b806301ffc9a714610126578063060475901461015657806306fdde0314610174578063081812fc14610192575b600080fd5b610140600480360381019061013b91906126bd565b6103f6565b60405161014d9190612e6b565b60405180910390f35b61015e6104d8565b60405161016b91906130e6565b60405180910390f35b61017c6104e9565b6040516101899190612e86565b60405180910390f35b6101ac60048036038101906101a7919061270f565b61057b565b6040516101b99190612ddb565b60405180910390f35b6101dc60048036038101906101d79190612681565b610600565b005b6101f860048036038101906101f3919061257b565b610718565b005b610214600480360381019061020f919061270f565b610778565b6040516102219190612e86565b60405180910390f35b610244600480360381019061023f919061257b565b610896565b005b610260600480360381019061025b919061270f565b6108b6565b60405161026d9190612e86565b60405180910390f35b610290600480360381019061028b919061270f565b6109d4565b60405161029d9190612ddb565b60405180910390f35b6102c060048036038101906102bb9190612516565b610a86565b6040516102cd91906130e6565b60405180910390f35b6102de610b3e565b6040516102eb9190612e86565b60405180910390f35b61030e60048036038101906103099190612645565b610bd0565b005b61032a6004803603810190610325919061270f565b610be6565b6040516103379190612e86565b60405180910390f35b61035a600480360381019061035591906125ca565b610d04565b005b6103766004803603810190610371919061270f565b610d66565b6040516103839190612e86565b60405180910390f35b6103a660048036038101906103a1919061270f565b610e84565b6040516103b39190612e86565b60405180910390f35b6103c4610fd6565b005b6103e060048036038101906103db919061253f565b6111fd565b6040516103ed9190612e6b565b60405180910390f35b60007f80ac58cd000000000000000000000000000000000000000000000000000000007bffffffffffffffffffffffffffffffffffffffffffffffffffffffff1916827bffffffffffffffffffffffffffffffffffffffffffffffffffffffff191614806104c157507f5b5e139f000000000000000000000000000000000000000000000000000000007bffffffffffffffffffffffffffffffffffffffffffffffffffffffff1916827bffffffffffffffffffffffffffffffffffffffffffffffffffffffff1916145b806104d157506104d08261132a565b5b9050919050565b60006104e46007611394565b905090565b6060600080546104f89061337a565b80601f01602080910402602001604051908101604052809291908181526020018280546105249061337a565b80156105715780601f1061054657610100808354040283529160200191610571565b820191906000526020600020905b81548152906001019060200180831161055457829003601f168201915b5050505050905090565b6000610586826113a2565b6105c5576040517f08c379a00000000000000000000000000000000000000000000000000000000081526004016105bc90613066565b60405180910390fd5b6004600083815260200190815260200160002060009054906101000a900473ffffffffffffffffffffffffffffffffffffffff169050919050565b600061060b826109d4565b90508073ffffffffffffffffffffffffffffffffffffffff168373ffffffffffffffffffffffffffffffffffffffff16141561067c576040517f08c379a0000000000000000000000000000000000000000000000000000000008152600401610673906130a6565b60405180910390fd5b8073ffffffffffffffffffffffffffffffffffffffff1661069b61140e565b73ffffffffffffffffffffffffffffffffffffffff1614806106ca57506106c9816106c461140e565b6111fd565b5b610709576040517f08c379a000000000000000000000000000000000000000000000000000000000815260040161070090612fa6565b60405180910390fd5b6107138383611416565b505050565b61072961072361140e565b826114cf565b610768576040517f08c379a000000000000000000000000000000000000000000000000000000000815260040161075f906130c6565b60405180910390fd5b6107738383836115ad565b505050565b606060006107ac61078884611814565b6040516020016107989190612d75565b6040516020818303038152906040526119c1565b9050600b80549050816107bf9190613426565b9050600b81815481106107fb577f4e487b7100000000000000000000000000000000000000000000000000000000600052603260045260246000fd5b9060005260206000200180546108109061337a565b80601f016020809104026020016040519081016040528092919081815260200182805461083c9061337a565b80156108895780601f1061085e57610100808354040283529160200191610889565b820191906000526020600020905b81548152906001019060200180831161086c57829003601f168201915b5050505050915050919050565b6108b183838360405180602001604052806000815250610d04565b505050565b606060006108ea6108c684611814565b6040516020016108d69190612db9565b6040516020818303038152906040526119c1565b9050600e80549050816108fd9190613426565b9050600e8181548110610939577f4e487b7100000000000000000000000000000000000000000000000000000000600052603260045260246000fd5b90600052602060002001805461094e9061337a565b80601f016020809104026020016040519081016040528092919081815260200182805461097a9061337a565b80156109c75780601f1061099c576101008083540402835291602001916109c7565b820191906000526020600020905b8154815290600101906020018083116109aa57829003601f168201915b5050505050915050919050565b6000806002600084815260200190815260200160002060009054906101000a900473ffffffffffffffffffffffffffffffffffffffff169050600073ffffffffffffffffffffffffffffffffffffffff168173ffffffffffffffffffffffffffffffffffffffff161415610a7d576040517f08c379a0000000000000000000000000000000000000000000000000000000008152600401610a7490612fe6565b60405180910390fd5b80915050919050565b60008073ffffffffffffffffffffffffffffffffffffffff168273ffffffffffffffffffffffffffffffffffffffff161415610af7576040517f08c379a0000000000000000000000000000000000000000000000000000000008152600401610aee90612fc6565b60405180910390fd5b600360008373ffffffffffffffffffffffffffffffffffffffff1673ffffffffffffffffffffffffffffffffffffffff168152602001908152602001600020549050919050565b606060018054610b4d9061337a565b80601f0160208091040260200160405190810160405280929190818152602001828054610b799061337a565b8015610bc65780601f10610b9b57610100808354040283529160200191610bc6565b820191906000526020600020905b815481529060010190602001808311610ba957829003601f168201915b5050505050905090565b610be2610bdb61140e565b83836119f4565b5050565b60606000610c1a610bf684611814565b604051602001610c069190612d0e565b6040516020818303038152906040526119c1565b9050600c8054905081610c2d9190613426565b9050600c8181548110610c69577f4e487b7100000000000000000000000000000000000000000000000000000000600052603260045260246000fd5b906000526020600020018054610c7e9061337a565b80601f0160208091040260200160405190810160405280929190818152602001828054610caa9061337a565b8015610cf75780601f10610ccc57610100808354040283529160200191610cf7565b820191906000526020600020905b815481529060010190602001808311610cda57829003601f168201915b5050505050915050919050565b610d15610d0f61140e565b836114cf565b610d54576040517f08c379a0000000000000000000000000000000000000000000000000000000008152600401610d4b906130c6565b60405180910390fd5b610d6084848484611b61565b50505050565b60606000610d9a610d7684611814565b604051602001610d869190612cec565b6040516020818303038152906040526119c1565b9050600d8054905081610dad9190613426565b9050600d8181548110610de9577f4e487b7100000000000000000000000000000000000000000000000000000000600052603260045260246000fd5b906000526020600020018054610dfe9061337a565b80601f0160208091040260200160405190810160405280929190818152602001828054610e2a9061337a565b8015610e775780601f10610e4c57610100808354040283529160200191610e77565b820191906000526020600020905b815481529060010190602001808311610e5a57829003601f168201915b5050505050915050919050565b6060610e8f826113a2565b610ece576040517f08c379a0000000000000000000000000000000000000000000000000000000008152600401610ec590613046565b60405180910390fd5b6000600660008481526020019081526020016000208054610eee9061337a565b80601f0160208091040260200160405190810160405280929190818152602001828054610f1a9061337a565b8015610f675780601f10610f3c57610100808354040283529160200191610f67565b820191906000526020600020905b815481529060010190602001808311610f4a57829003601f168201915b505050505090506000610f78611bbd565b9050600081511415610f8e578192505050610fd1565b600082511115610fc3578082604051602001610fab929190612c2c565b60405160208183030381529060405292505050610fd1565b610fcc84611bd4565b925050505b919050565b6000610fe26007611394565b90506008548110610ff257600080fd5b6000610ffd82610778565b9050600061100a83610be6565b9050600061101784610d66565b9050600083838360405160200161103093929190612c50565b6040516020818303038152906040529050600061104c866108b6565b90506000600982600a856040516020016110699493929190612c81565b604051602081830303815290604052905060006110ae8461108984611c7b565b60405160200161109a929190612d30565b604051602081830303815290604052611c7b565b90506000816040516020016110c39190612d97565b60405160208183030381529060405290506111126040518060400160405280601681526020017f0a2d2d2d2d2d2d2d2d2d2d2d2d2d2d2d2d2d2d2d2d2d00000000000000000000815250611291565b61113a816040516020016111269190612cca565b604051602081830303815290604052611291565b6111786040518060400160405280601681526020017f2d2d2d2d2d2d2d2d2d2d2d2d2d2d2d2d2d2d2d2d2d0a00000000000000000000815250611291565b611182338a611e39565b61118c8982611e57565b6111af604051806060016040528060258152602001613c31602591398a33611ecb565b6111b96007611f6a565b7febb98688741ffa4c7589bf325de30cf7becb63de567842e1ccdb6cb949fdc82c338a6040516111ea929190612e42565b60405180910390a1505050505050505050565b6000600560008473ffffffffffffffffffffffffffffffffffffffff1673ffffffffffffffffffffffffffffffffffffffff16815260200190815260200160002060008373ffffffffffffffffffffffffffffffffffffffff1673ffffffffffffffffffffffffffffffffffffffff16815260200190815260200160002060009054906101000a900460ff16905092915050565b611327816040516024016112a59190612e86565b6040516020818303038152906040527f41304fac000000000000000000000000000000000000000000000000000000007bffffffffffffffffffffffffffffffffffffffffffffffffffffffff19166020820180517bffffffffffffffffffffffffffffffffffffffffffffffffffffffff8381831617835250505050611f80565b50565b60007f01ffc9a7000000000000000000000000000000000000000000000000000000007bffffffffffffffffffffffffffffffffffffffffffffffffffffffff1916827bffffffffffffffffffffffffffffffffffffffffffffffffffffffff1916149050919050565b600081600001549050919050565b60008073ffffffffffffffffffffffffffffffffffffffff166002600084815260200190815260200160002060009054906101000a900473ffffffffffffffffffffffffffffffffffffffff1673ffffffffffffffffffffffffffffffffffffffff1614159050919050565b600033905090565b816004600083815260200190815260200160002060006101000a81548173ffffffffffffffffffffffffffffffffffffffff021916908373ffffffffffffffffffffffffffffffffffffffff160217905550808273ffffffffffffffffffffffffffffffffffffffff16611489836109d4565b73ffffffffffffffffffffffffffffffffffffffff167f8c5be1e5ebec7d5bd14f71427d1e84f3dd0314c0f7b2291e5b200ac8c7c3b92560405160405180910390a45050565b60006114da826113a2565b611519576040517f08c379a000000000000000000000000000000000000000000000000000000000815260040161151090612f86565b60405180910390fd5b6000611524836109d4565b90508073ffffffffffffffffffffffffffffffffffffffff168473ffffffffffffffffffffffffffffffffffffffff16148061159357508373ffffffffffffffffffffffffffffffffffffffff1661157b8461057b565b73ffffffffffffffffffffffffffffffffffffffff16145b806115a457506115a381856111fd565b5b91505092915050565b8273ffffffffffffffffffffffffffffffffffffffff166115cd826109d4565b73ffffffffffffffffffffffffffffffffffffffff1614611623576040517f08c379a000000000000000000000000000000000000000000000000000000000815260040161161a90612f06565b60405180910390fd5b600073ffffffffffffffffffffffffffffffffffffffff168273ffffffffffffffffffffffffffffffffffffffff161415611693576040517f08c379a000000000000000000000000000000000000000000000000000000000815260040161168a90612f46565b60405180910390fd5b61169e838383611fa9565b6116a9600082611416565b6001600360008573ffffffffffffffffffffffffffffffffffffffff1673ffffffffffffffffffffffffffffffffffffffff16815260200190815260200160002060008282546116f99190613290565b925050819055506001600360008473ffffffffffffffffffffffffffffffffffffffff1673ffffffffffffffffffffffffffffffffffffffff168152602001908152602001600020600082825461175091906131af565b92505081905550816002600083815260200190815260200160002060006101000a81548173ffffffffffffffffffffffffffffffffffffffff021916908373ffffffffffffffffffffffffffffffffffffffff160217905550808273ffffffffffffffffffffffffffffffffffffffff168473ffffffffffffffffffffffffffffffffffffffff167fddf252ad1be2c89b69c2b068fc378daa952ba7f163c4a11628f55a4df523b3ef60405160405180910390a461180f838383611fae565b505050565b6060600082141561185c576040518060400160405280600181526020017f300000000000000000000000000000000000000000000000000000000000000081525090506119bc565b600082905060005b6000821461188e578080611877906133dd565b915050600a826118879190613205565b9150611864565b60008167ffffffffffffffff8111156118d0577f4e487b7100000000000000000000000000000000000000000000000000000000600052604160045260246000fd5b6040519080825280601f01601f1916602001820160405280156119025781602001600182028036833780820191505090505b5090505b600085146119b55760018261191b9190613290565b9150600a8561192a9190613426565b603061193691906131af565b60f81b818381518110611972577f4e487b7100000000000000000000000000000000000000000000000000000000600052603260045260246000fd5b60200101907effffffffffffffffffffffffffffffffffffffffffffffffffffffffffffff1916908160001a905350600a856119ae9190613205565b9450611906565b8093505050505b919050565b6000816040516020016119d49190612c15565b6040516020818303038152906040528051906020012060001c9050919050565b8173ffffffffffffffffffffffffffffffffffffffff168373ffffffffffffffffffffffffffffffffffffffff161415611a63576040517f08c379a0000000000000000000000000000000000000000000000000000000008152600401611a5a90612f66565b60405180910390fd5b80600560008573ffffffffffffffffffffffffffffffffffffffff1673ffffffffffffffffffffffffffffffffffffffff16815260200190815260200160002060008473ffffffffffffffffffffffffffffffffffffffff1673ffffffffffffffffffffffffffffffffffffffff16815260200190815260200160002060006101000a81548160ff0219169083151502179055508173ffffffffffffffffffffffffffffffffffffffff168373ffffffffffffffffffffffffffffffffffffffff167f17307eab39ab6107e8899845ad3d59bd9653f200f220920489ca2b5937696c3183604051611b549190612e6b565b60405180910390a3505050565b611b6c8484846115ad565b611b7884848484611fb3565b611bb7576040517f08c379a0000000000000000000000000000000000000000000000000000000008152600401611bae90612ee6565b60405180910390fd5b50505050565b606060405180602001604052806000815250905090565b6060611bdf826113a2565b611c1e576040517f08c379a0000000000000000000000000000000000000000000000000000000008152600401611c1590613086565b60405180910390fd5b6000611c28611bbd565b90506000815111611c485760405180602001604052806000815250611c73565b80611c5284611814565b604051602001611c63929190612c2c565b6040516020818303038152906040525b915050919050565b60606000825190506000811415611ca45760405180602001604052806000815250915050611e34565b60006003600283611cb591906131af565b611cbf9190613205565b6004611ccb9190613236565b90506000602082611cdc91906131af565b67ffffffffffffffff811115611d1b577f4e487b7100000000000000000000000000000000000000000000000000000000600052604160045260246000fd5b6040519080825280601f01601f191660200182016040528015611d4d5781602001600182028036833780820191505090505b5090506000604051806060016040528060408152602001613c56604091399050600181016020830160005b86811015611df15760038101905062ffffff818a015116603f8160121c168401518060081b905060ff603f83600c1c1686015116810190508060081b905060ff603f8360061c1686015116810190508060081b905060ff603f831686015116810190508060e01b90508084526004840193505050611d78565b506003860660018114611e0b5760028114611e1b57611e26565b613d3d60f01b6002830352611e26565b603d60f81b60018303525b508484525050819450505050505b919050565b611e5382826040518060200160405280600081525061214a565b5050565b611e60826113a2565b611e9f576040517f08c379a0000000000000000000000000000000000000000000000000000000008152600401611e9690613006565b60405180910390fd5b80600660008481526020019081526020016000209080519060200190611ec69291906123a2565b505050565b611f65838383604051602401611ee393929190612ea8565b6040516020818303038152906040527fe3849f79000000000000000000000000000000000000000000000000000000007bffffffffffffffffffffffffffffffffffffffffffffffffffffffff19166020820180517bffffffffffffffffffffffffffffffffffffffffffffffffffffffff8381831617835250505050611f80565b505050565b6001816000016000828254019250508190555050565b60008151905060006a636f6e736f6c652e6c6f679050602083016000808483855afa5050505050565b505050565b505050565b6000611fd48473ffffffffffffffffffffffffffffffffffffffff166121a5565b1561213d578373ffffffffffffffffffffffffffffffffffffffff1663150b7a02611ffd61140e565b8786866040518563ffffffff1660e01b815260040161201f9493929190612df6565b602060405180830381600087803b15801561203957600080fd5b505af192505050801561206a57506040513d601f19601f8201168201806040525081019061206791906126e6565b60015b6120ed573d806000811461209a576040519150601f19603f3d011682016040523d82523d6000602084013e61209f565b606091505b506000815114156120e5576040517f08c379a00000000000000000000000000000000000000000000000000000000081526004016120dc90612ee6565b60405180910390fd5b805181602001fd5b63150b7a0260e01b7bffffffffffffffffffffffffffffffffffffffffffffffffffffffff1916817bffffffffffffffffffffffffffffffffffffffffffffffffffffffff191614915050612142565b600190505b949350505050565b61215483836121c8565b6121616000848484611fb3565b6121a0576040517f08c379a000000000000000000000000000000000000000000000000000000000815260040161219790612ee6565b60405180910390fd5b505050565b6000808273ffffffffffffffffffffffffffffffffffffffff163b119050919050565b600073ffffffffffffffffffffffffffffffffffffffff168273ffffffffffffffffffffffffffffffffffffffff161415612238576040517f08c379a000000000000000000000000000000000000000000000000000000000815260040161222f90613026565b60405180910390fd5b612241816113a2565b15612281576040517f08c379a000000000000000000000000000000000000000000000000000000000815260040161227890612f26565b60405180910390fd5b61228d60008383611fa9565b6001600360008473ffffffffffffffffffffffffffffffffffffffff1673ffffffffffffffffffffffffffffffffffffffff16815260200190815260200160002060008282546122dd91906131af565b92505081905550816002600083815260200190815260200160002060006101000a81548173ffffffffffffffffffffffffffffffffffffffff021916908373ffffffffffffffffffffffffffffffffffffffff160217905550808273ffffffffffffffffffffffffffffffffffffffff16600073ffffffffffffffffffffffffffffffffffffffff167fddf252ad1be2c89b69c2b068fc378daa952ba7f163c4a11628f55a4df523b3ef60405160405180910390a461239e60008383611fae565b5050565b8280546123ae9061337a565b90600052602060002090601f0160209004810192826123d05760008555612417565b82601f106123e957805160ff1916838001178555612417565b82800160010185558215612417579182015b828111156124165782518255916020019190600101906123fb565b5b5090506124249190612428565b5090565b5b80821115612441576000816000905550600101612429565b5090565b600061245861245384613126565b613101565b90508281526020810184848401111561247057600080fd5b61247b848285613338565b509392505050565b60008135905061249281613bd4565b92915050565b6000813590506124a781613beb565b92915050565b6000813590506124bc81613c02565b92915050565b6000815190506124d181613c02565b92915050565b600082601f8301126124e857600080fd5b81356124f8848260208601612445565b91505092915050565b60008135905061251081613c19565b92915050565b60006020828403121561252857600080fd5b600061253684828501612483565b91505092915050565b6000806040838503121561255257600080fd5b600061256085828601612483565b925050602061257185828601612483565b9150509250929050565b60008060006060848603121561259057600080fd5b600061259e86828701612483565b93505060206125af86828701612483565b92505060406125c086828701612501565b9150509250925092565b600080600080608085870312156125e057600080fd5b60006125ee87828801612483565b94505060206125ff87828801612483565b935050604061261087828801612501565b925050606085013567ffffffffffffffff81111561262d57600080fd5b612639878288016124d7565b91505092959194509250565b6000806040838503121561265857600080fd5b600061266685828601612483565b925050602061267785828601612498565b9150509250929050565b6000806040838503121561269457600080fd5b60006126a285828601612483565b92505060206126b385828601612501565b9150509250929050565b6000602082840312156126cf57600080fd5b60006126dd848285016124ad565b91505092915050565b6000602082840312156126f857600080fd5b6000612706848285016124c2565b91505092915050565b60006020828403121561272157600080fd5b600061272f84828501612501565b91505092915050565b612741816132c4565b82525050565b612750816132d6565b82525050565b60006127618261316c565b61276b8185613182565b935061277b818560208601613347565b61278481613513565b840191505092915050565b600061279a82613177565b6127a48185613193565b93506127b4818560208601613347565b6127bd81613513565b840191505092915050565b60006127d382613177565b6127dd81856131a4565b93506127ed818560208601613347565b80840191505092915050565b600081546128068161337a565b61281081866131a4565b9450600182166000811461282b576001811461283c5761286f565b60ff1983168652818601935061286f565b61284585613157565b60005b8381101561286757815481890152600182019150602081019050612848565b838801955050505b50505092915050565b60006128856025836131a4565b915061289082613524565b602582019050919050565b60006128a8603283613193565b91506128b382613573565b604082019050919050565b60006128cb602583613193565b91506128d6826135c2565b604082019050919050565b60006128ee601c83613193565b91506128f982613611565b602082019050919050565b6000612911600a836131a4565b915061291c8261363a565b600a82019050919050565b6000612934602483613193565b915061293f82613663565b604082019050919050565b6000612957601983613193565b9150612962826136b2565b602082019050919050565b600061297a6063836131a4565b9150612985826136db565b606382019050919050565b600061299d600b836131a4565b91506129a882613776565b600b82019050919050565b60006129c0602c83613193565b91506129cb8261379f565b604082019050919050565b60006129e3600d836131a4565b91506129ee826137ee565b600d82019050919050565b6000612a06603883613193565b9150612a1182613817565b604082019050919050565b6000612a29602a83613193565b9150612a3482613866565b604082019050919050565b6000612a4c602983613193565b9150612a57826138b5565b604082019050919050565b6000612a6f602e83613193565b9150612a7a82613904565b604082019050919050565b6000612a926002836131a4565b9150612a9d82613953565b600282019050919050565b6000612ab5602083613193565b9150612ac08261397c565b602082019050919050565b6000612ad8603183613193565b9150612ae3826139a5565b604082019050919050565b6000612afb602c83613193565b9150612b06826139f4565b604082019050919050565b6000612b1e602f83613193565b9150612b2982613a43565b604082019050919050565b6000612b41600a836131a4565b9150612b4c82613a92565b600a82019050919050565b6000612b64602183613193565b9150612b6f82613abb565b604082019050919050565b6000612b87600a836131a4565b9150612b9282613b0a565b600a82019050919050565b6000612baa601d836131a4565b9150612bb582613b33565b601d82019050919050565b6000612bcd603183613193565b9150612bd882613b5c565b604082019050919050565b6000612bf06005836131a4565b9150612bfb82613bab565b600582019050919050565b612c0f8161332e565b82525050565b6000612c2182846127c8565b915081905092915050565b6000612c3882856127c8565b9150612c4482846127c8565b91508190509392505050565b6000612c5c82866127c8565b9150612c6882856127c8565b9150612c7482846127c8565b9150819050949350505050565b6000612c8d82876127f9565b9150612c9982866127c8565b9150612ca582856127f9565b9150612cb182846127c8565b9150612cbc826129d6565b915081905095945050505050565b6000612cd582612878565b9150612ce182846127c8565b915081905092915050565b6000612cf782612904565b9150612d0382846127c8565b915081905092915050565b6000612d1982612990565b9150612d2582846127c8565b915081905092915050565b6000612d3b82612b34565b9150612d4782856127c8565b9150612d528261296d565b9150612d5e82846127c8565b9150612d6982612a85565b91508190509392505050565b6000612d8082612b7a565b9150612d8c82846127c8565b915081905092915050565b6000612da282612b9d565b9150612dae82846127c8565b915081905092915050565b6000612dc482612be3565b9150612dd082846127c8565b915081905092915050565b6000602082019050612df06000830184612738565b92915050565b6000608082019050612e0b6000830187612738565b612e186020830186612738565b612e256040830185612c06565b8181036060830152612e378184612756565b905095945050505050565b6000604082019050612e576000830185612738565b612e646020830184612c06565b9392505050565b6000602082019050612e806000830184612747565b92915050565b60006020820190508181036000830152612ea0818461278f565b905092915050565b60006060820190508181036000830152612ec2818661278f565b9050612ed16020830185612c06565b612ede6040830184612738565b949350505050565b60006020820190508181036000830152612eff8161289b565b9050919050565b60006020820190508181036000830152612f1f816128be565b9050919050565b60006020820190508181036000830152612f3f816128e1565b9050919050565b60006020820190508181036000830152612f5f81612927565b9050919050565b60006020820190508181036000830152612f7f8161294a565b9050919050565b60006020820190508181036000830152612f9f816129b3565b9050919050565b60006020820190508181036000830152612fbf816129f9565b9050919050565b60006020820190508181036000830152612fdf81612a1c565b9050919050565b60006020820190508181036000830152612fff81612a3f565b9050919050565b6000602082019050818103600083015261301f81612a62565b9050919050565b6000602082019050818103600083015261303f81612aa8565b9050919050565b6000602082019050818103600083015261305f81612acb565b9050919050565b6000602082019050818103600083015261307f81612aee565b9050919050565b6000602082019050818103600083015261309f81612b11565b9050919050565b600060208201905081810360008301526130bf81612b57565b9050919050565b600060208201905081810360008301526130df81612bc0565b9050919050565b60006020820190506130fb6000830184612c06565b92915050565b600061310b61311c565b905061311782826133ac565b919050565b6000604051905090565b600067ffffffffffffffff821115613141576131406134e4565b5b61314a82613513565b9050602081019050919050565b60008190508160005260206000209050919050565b600081519050919050565b600081519050919050565b600082825260208201905092915050565b600082825260208201905092915050565b600081905092915050565b60006131ba8261332e565b91506131c58361332e565b9250827fffffffffffffffffffffffffffffffffffffffffffffffffffffffffffffffff038211156131fa576131f9613457565b5b828201905092915050565b60006132108261332e565b915061321b8361332e565b92508261322b5761322a613486565b5b828204905092915050565b60006132418261332e565b915061324c8361332e565b9250817fffffffffffffffffffffffffffffffffffffffffffffffffffffffffffffffff048311821515161561328557613284613457565b5b828202905092915050565b600061329b8261332e565b91506132a68361332e565b9250828210156132b9576132b8613457565b5b828203905092915050565b60006132cf8261330e565b9050919050565b60008115159050919050565b60007fffffffff0000000000000000000000000000000000000000000000000000000082169050919050565b600073ffffffffffffffffffffffffffffffffffffffff82169050919050565b6000819050919050565b82818337600083830152505050565b60005b8381101561336557808201518184015260208101905061334a565b83811115613374576000848401525b50505050565b6000600282049050600182168061339257607f821691505b602082108114156133a6576133a56134b5565b5b50919050565b6133b582613513565b810181811067ffffffffffffffff821117156133d4576133d36134e4565b5b80604052505050565b60006133e88261332e565b91507fffffffffffffffffffffffffffffffffffffffffffffffffffffffffffffffff82141561341b5761341a613457565b5b600182019050919050565b60006134318261332e565b915061343c8361332e565b92508261344c5761344b613486565b5b828206905092915050565b7f4e487b7100000000000000000000000000000000000000000000000000000000600052601160045260246000fd5b7f4e487b7100000000000000000000000000000000000000000000000000000000600052601260045260246000fd5b7f4e487b7100000000000000000000000000000000000000000000000000000000600052602260045260246000fd5b7f4e487b7100000000000000000000000000000000000000000000000000000000600052604160045260246000fd5b6000601f19601f8301169050919050565b7f68747470733a2f2f6e6674707265766965772e30786465762e636f6465732f3f60008201527f636f64653d000000000000000000000000000000000000000000000000000000602082015250565b7f4552433732313a207472616e7366657220746f206e6f6e20455243373231526560008201527f63656976657220696d706c656d656e7465720000000000000000000000000000602082015250565b7f4552433732313a207472616e736665722066726f6d20696e636f72726563742060008201527f6f776e6572000000000000000000000000000000000000000000000000000000602082015250565b7f4552433732313a20746f6b656e20616c7265616479206d696e74656400000000600082015250565b7f54484952445f574f524400000000000000000000000000000000000000000000600082015250565b7f4552433732313a207472616e7366657220746f20746865207a65726f2061646460008201527f7265737300000000000000000000000000000000000000000000000000000000602082015250565b7f4552433732313a20617070726f766520746f2063616c6c657200000000000000600082015250565b7f222c20226465736372697074696f6e223a20224120686967686c79206163636c60008201527f61696d656420636f6c6c656374696f6e206f6620737175617265732e222c202260208201527f696d616765223a2022646174613a696d6167652f7376672b786d6c3b6261736560408201527f36342c0000000000000000000000000000000000000000000000000000000000606082015250565b7f5345434f4e445f574f5244000000000000000000000000000000000000000000600082015250565b7f4552433732313a206f70657261746f7220717565727920666f72206e6f6e657860008201527f697374656e7420746f6b656e0000000000000000000000000000000000000000602082015250565b7f3c2f746578743e3c2f7376673e00000000000000000000000000000000000000600082015250565b7f4552433732313a20617070726f76652063616c6c6572206973206e6f74206f7760008201527f6e6572206e6f7220617070726f76656420666f7220616c6c0000000000000000602082015250565b7f4552433732313a2062616c616e636520717565727920666f7220746865207a6560008201527f726f206164647265737300000000000000000000000000000000000000000000602082015250565b7f4552433732313a206f776e657220717565727920666f72206e6f6e657869737460008201527f656e7420746f6b656e0000000000000000000000000000000000000000000000602082015250565b7f45524337323155524953746f726167653a2055524920736574206f66206e6f6e60008201527f6578697374656e7420746f6b656e000000000000000000000000000000000000602082015250565b7f227d000000000000000000000000000000000000000000000000000000000000600082015250565b7f4552433732313a206d696e7420746f20746865207a65726f2061646472657373600082015250565b7f45524337323155524953746f726167653a2055524920717565727920666f722060008201527f6e6f6e6578697374656e7420746f6b656e000000000000000000000000000000602082015250565b7f4552433732313a20617070726f76656420717565727920666f72206e6f6e657860008201527f697374656e7420746f6b656e0000000000000000000000000000000000000000602082015250565b7f4552433732314d657461646174613a2055524920717565727920666f72206e6f60008201527f6e6578697374656e7420746f6b656e0000000000000000000000000000000000602082015250565b7f7b226e616d65223a202200000000000000000000000000000000000000000000600082015250565b7f4552433732313a20617070726f76616c20746f2063757272656e74206f776e6560008201527f7200000000000000000000000000000000000000000000000000000000000000602082015250565b7f46495253545f574f524400000000000000000000000000000000000000000000600082015250565b7f646174613a6170706c69636174696f6e2f6a736f6e3b6261736536342c000000600082015250565b7f4552433732313a207472616e736665722063616c6c6572206973206e6f74206f60008201527f776e6572206e6f7220617070726f766564000000000000000000000000000000602082015250565b7f434f4c4f52000000000000000000000000000000000000000000000000000000600082015250565b613bdd816132c4565b8114613be857600080fd5b50565b613bf4816132d6565b8114613bff57600080fd5b50565b613c0b816132e2565b8114613c1657600080fd5b50565b613c228161332e565b8114613c2d57600080fd5b5056fe416e204e465420772f20494420257320686173206265656e206d696e74656420746f2025734142434445464748494a4b4c4d4e4f505152535455565758595a6162636465666768696a6b6c6d6e6f707172737475767778797a303132333435363738392b2fa2646970667358221220987176b6510a9fc4fd7ab0b1783c60eb72403b793a4b6fb0718e8f9f3cf1360964736f6c634300080100333c73766720786d6c6e733d27687474703a2f2f7777772e77332e6f72672f323030302f73766727207072657365727665417370656374526174696f3d27784d696e594d696e206d656574272076696577426f783d273020302033353020333530273e3c7374796c653e2e62617365207b2066696c6c3a2077686974653b20666f6e742d66616d696c793a2073657269663b20666f6e742d73697a653a20323470783b207d3c2f7374796c653e3c726563742077696474683d273130302527206865696768743d2731303025272066696c6c3d27272f3e3c7465787420783d273530252720793d273530252720636c6173733d27626173652720646f6d696e616e742d626173656c696e653d276d6964646c652720746578742d616e63686f723d276d6964646c65273e",
  "linkReferences": {},
  "deployedLinkReferences": {}
}